:100000000C9434000C943E000C943E000C943E0082
:100010000C943E000C943E000C943E000C943E0068
:100020000C943E000C943E000C943E000C943E0058
:100030000C943E000C943E000C943E000C943E0048
:100040000C943E000C943E000C94F0000C943E0086
:100050000C943E000C943E000C943E000C943E0028
:100060000C943E000C943E0011241FBECFEFD8E04C
:10007000DEBFCDBF0E9426010C9432010C9400001B
:100080001092C5008DE48093C400E0ECF0E0808124
:100090008D7F808386E08093C20088ED8093C100CD
:1000A00008959091C00095FFFCCF8093C6000895FD
:1000B0008091C00087FFFCCF8091C60008958FE338
:1000C00084B915B808958CEF8AB91BB808950E94B9
:1000D0005F000C94630020E030E0281739074CF4EF
:1000E000E7EBFBE03197F1F700C000002F5F3F4FD7
:1000F000F4CF08950F931F93CF93DF938C0180E289
:1001000085B9C8010E946B00C5E0D0E095B185B10A
:100110008695892B85B9C8010E946B00219720978D
:10012000A9F7DF91CF911F910F9108950F931F931E
:10013000CF93DF938C0180E88BB9C8010E946B00DC
:10014000C5E0D0E09BB18BB18695892B8BB9C801F6
:100150000E946B0021972097A9F7DF91CF911F9103
:100160000F9108950F931F93CF93DF938C01C6E0F7
:10017000D0E09BB18BB1880F89238BB9C8010E9455
:100180006B0021972097A9F7DF91CF911F910F91D5
:1001900008950F931F93CF93DF938C01C6E0D0E0B7
:1001A00095B185B1880F892385B9C8010E946B007C
:1001B00021972097A9F7DF91CF911F910F91089573
:1001C000CF93DF93EC010E947A00CE010E9496004B
:1001D000CE010E94B200CE01DF91CF910C94C900F4
:1001E0001F920F920FB60F9211242F933F934F93AC
:1001F0005F936F937F938F939F93AF93BF93CF93AF
:10020000EF93FF9315B81BB80E945800C82F0E94A7
:100210005100C13619F484E690E004C0C23621F4DE
:1002200088EE93E00E94E000FF91EF91CF91BF91A3
:10023000AF919F918F917F916F915F914F913F917E
:100240002F910F900FBE0F901F9018950E9467007E
:100250000E944000789480E285B98CE291E00E948F
:08026000E000FBCFF894FFCF92
:00000001FF
