:100000000C9434000C943E000C943E000C943E0082
:100010000C943E000C943E000C943E000C943E0068
:100020000C943E000C943E000C943E000C943E0058
:100030000C943E000C943E000C943E000C943E0048
:100040000C943E000C943E000C943E000C943E0038
:100050000C943E000C943E000C943E000C943E0028
:100060000C943E000C943E0011241FBECFEFD8E04C
:10007000DEBFCDBF0E94D1000C94D8000C940000CC
:100080008FE384B915B808958CEF8AB91BB8089529
:100090000E9440000C94440020E030E0281739070B
:1000A0004CF4E7EBFBE03197F1F700C000002F5F65
:1000B0003F4FF4CF08950F931F93CF93DF938C019D
:1000C00080E285B9C8010E944C00C5E0D0E095B13E
:1000D00085B18695892B85B9C8010E944C0021976E
:1000E0002097A9F7DF91CF911F910F9108950F935A
:1000F0001F93CF93DF938C0180E88BB9C8010E94D6
:100100004C00C5E0D0E09BB18BB18695892B8BB9B3
:10011000C8010E944C0021972097A9F7DF91CF9149
:100120001F910F9108950F931F93CF93DF938C012D
:10013000C6E0D0E09BB18BB1880F89238BB9C80191
:100140000E944C0021972097A9F7DF91CF911F9132
:100150000F9108950F931F93CF93DF938C01C6E007
:10016000D0E095B185B1880F892385B9C8010E9477
:100170004C0021972097A9F7DF91CF911F910F9104
:100180000895CF93DF93EC010E945B00CE010E94A3
:100190007700CE010E949300CE01DF91CF910C94A5
:1001A000AA000E94480084EF91E00E94C100FBCFAA
:0401B000F894FFCFF1
:00000001FF
